:1000000080312D28080008007E1480310B1F2B281A
:100010002100111C12282000111C12289C312324BD
:1000200080312B282100911E1F282000911E1F289F
:1000300022004F088A004E080A0080312B28210038
:10004000111E2B282000111E2B28220051088A0087
:1000500050080A0080317E1009008231BE2A20003B
:100060005608031D0800210056082000B700210093
:1000700055082000B6004030B8000230B9009D207D
:1000800080314030C1000230C2002030C300023055
:10009000C400EB2080314030BF000230C00020306F
:1000A000C1000230C2005708C300D22C2000C40097
:1000B0005608031D0034023044020318003444087B
:1000C000D7004408031D6D281030C200E430C3017E
:1000D000C0000330C1008B208031440B79281030E0
:1000E000C2000230C3000430C0000130C1008B20C8
:1000F00080314208BD0080304304BE004C21803175
:10010000220055082000B700220054082000C12119
:1001100080319D2001345608031D0034410822001F
:10012000D500200040082200D40020004108B7007C
:100130004008C12180319D20013437080339013E38
:10014000BA003808043EBB000030393DBC003B0813
:1001500086003C0887003A088100BA2180310319E3
:100160000800BF01BA2180313F0203180800570878
:10017000031DD3283F08BA00BB013807BC003B0869
:10018000393DBD003C0886003D08870036088100E7
:100190003F08BA00BB01380786003B08393D87009D
:1001A00003308105E528360803390907BA003F08FE
:1001B000BB00BC013807BD003C08393DBE003D080E
:1001C00086003E0887003A088100B736B60CB7367D
:1001D000B60CBF0AB22855080319FA284108860050
:1001E00042088700010875218031C72180314C21E8
:1001F0008031D5012100AA01AB01B4218031443105
:10020000010821002B0203184629B4218031443112
:100210000108FF3E2100A000FF3003180030A100BC
:100220002B0820062104031D1829B4218031292917
:100230002B08A000A101200041072100A2002108F5
:100240002000423D2100A3002208860023088700E9
:100250004131010875218031C72180314C21803125
:100260003E082100A90020003D082100A800291E09
:100270003E292808A000F030290442292808A000BF
:100280000F30290592218031AB0AFD280430AA0ADB
:100290002A0203180800FC282400951322008E115E
:1002A00020003E08240091002400141859296400FD
:1002B000542911082000BF00C0012400951320001C
:1002C0003D08240091002400141868296400632963
:1002D00022008E1520003F08BE00BD012400110839
:1002E0002000BD070318BE0A08002000BA00570806
:1002F0001030BB00031D7E2980307F298230BC0076
:100300003A080339B8000A30B901B835B90D890B7C
:1003100085293808BB043908BC043C08B7003B08F1
:10032000B6000800A1002A08A200A3012B08A4001F
:10033000A501A435A50DA435A50D22082407A60006
:100340002308253DA700A635A70D26082000430752
:100350008600210027082000443D87002100200856
:10036000C03F2108C13F0800200041088600420824
:1003700087000800380886003908870044310108E2
:100380000800B6005E30B8000130B9000800370838
:10039000BE003608BD0008002100B2008F31DC2706
:1003A000803132082000C400C501C41BC503AD3034
:1003B000FD218031B301AD302000B6000030B70020
:1003C0000924803121003308AB00AC01200037083C
:1003D00021002C02031DF0292000360821002B02E9
:1003E000031808003308AD3E8600870101088E31EE
:1003F000DC2680312100B30ADB292100A90044302A
:10040000A4004B2780312A080319742A25302A06B4
:1004100003190D2A99278031012AA5014B27803124
:10042000003A0319742A643A03191A2A0D3A031977
:100430001A2A012A240886008701403FA700413F6D
:10044000A800A40AA40AA81F2C2A0330A504A709FF
:10045000A809A70A0319A80AAA01AA0A2A086D2747
:100460008031A200013FA30023082802031D3A2A7D
:1004700022082702031C412A0530AA0A2A06031D66
:100480002E2A2508033903194B2A290886002D3006
:1004900087018100A90A2A08A600702A0A302000D4
:1004A000BD00BE01210026086D2780312000B60066
:1004B000013FB700210028082000B90021002708CB
:1004C0002000B800792280313708C0003608BF000C
:1004D0009E2280313D08303E2100AA0099278031BC
:1004E000A603260F4E2A012A2908860087018101CA
:1004F0000800BB01BC01360837040319992ABA0168
:10050000BA0AB71B862AB635B70D802ABB35BC0D93
:1005100037083902031D8E2A36083802031C952A33
:100520003608B8023708B93B3B14B736B60CBA0BDD
:10053000862A3C08B7003B08B60008003D083E0488
:100540000319B92AC101C10ABE1BA92ABD35BE0DB6
:10055000A32A3E084002031DAF2A3D083F02031CA8
:10056000B52A3D08BF023E08C03BBE36BD0CC10BDC
:10057000A92A4008BE003F08BD0008007030840072
:10058000213085008030FE000230FF0088310320DA
:1005900080314730FB018400003085001330FE00BD
:1005A000FF0188310320803121002030E301E40184
:1005B000E501E6018400013085004330FE00003093
:1005C000FF00883103208031A03084000130850095
:1005D0004430FE000030FF008831032080317E105F
:1005E0002000F22A262380318B170B17443020007D
:1005F000B6001C30B7001E238831AB2080312100AB
:100600000E128E1220005608013A031D092B1F24DA
:1006100080315A2380310F2380316400022B210066
:10062000111A080002302000480200300319470266
:10063000031C0C19080021001116080037082200BD
:10064000D300200036082200D20008003B2380316E
:10065000312380315723803151238031B2248031BE
:100660004F2C703021009900980122009601210042
:100670001A1B0800372B22008C018E012F3021001D
:100680008C0006308E00043023008E008C01240084
:100690008C018E0121009517C43022009D009E011F
:1006A00008002400940120309500920108000E30CB
:1006B0009700080004248031003A03190800E2235F
:1006C00080312100E200023A031D682B2000CD0199
:1006D000223020004D06031D7A2B0D3021006206CA
:1006E000031D080020008D30CD01BB009830BC00F8
:1006F000BD01B02B4D08A03E8600013087002100CF
:100700006208810020000D30CD0A21006206031D21
:100710000800A02B893147218031AD2B8D3020007E
:10072000BB009830BC00BD01B0238031AD2B8B30B5
:100730002000BB009830BC00BD01B0238031AD2B40
:100740009031D9208031003A03198A2B013A0319DC
:100750008E2B033A0319972BAD2B2000CD010800F7
:100760003C08B7003B08B600092480313608C000B9
:1007700040080319080002308E31DC268031200049
:100780003D080319C72B41308E31DC268031200013
:10079000C101400841020318DF2B3C08BF003B08A1
:1007A000BE0041083E0784003F0803183F0A850049
:1007B00000088E31DC2680312000C10AC92B0D30A3
:1007C0008E31DC2E20005108031DE82B6400E22B43
:1007D0005308343E86000130870001082100E500FF
:1007E000200053082C3E86000108B600D30A0830CA
:1007F00053020318D301210091122000D1032100DC
:10080000911620003608080020005108031D01340D
:1008100000343708BA003608B900390884003A08AD
:10082000850012000319182CB90A0319BA0A0D2CF5
:1008300036083902B60037083A3BB70008007B0893
:10084000031908005E302100BF000130C000200005
:1008500054082100D500D6015608D8007B0855025F
:10086000D700031CD8030339D90000305805DA003B
:100870000530D935DA0D890B392C7030DB00233087
:10088000DC0059085B07DD005A085C3DDE005D08AE
:10089000C1005E08C200C301D224FB03080021008E
:1008A000911298302000B6001030B700A224803199
:1008B000210011126B302000B6001030B700AA24BE
:1008C0008031083023009F0090309D0024309E002E
:1008D00022309B009C0102302000B6000030B7009F
:1008E0009224803144302000B6001030B7009A24A2
:1008F000803197302000B6001030B700CA242100A4
:10090000E5012000C901CA012100E301E401200042
:10091000C7010230C800D201D301D10121000C155A
:100920009116080037082200CB002000360822006C
:10093000CA00080037082200CD0020003608220037
:10094000CC00080037082200CF0020003608220023
:10095000CE00080037082200D1002000360822000F
:10096000D00008002000990102309700183096004E
:100970001708CC00CB011608CB041110210011146C
:1009800003302000B6000030B7001E2331302000B5
:100990009800080037082200C9002000360822000D
:1009A000C800080040082000C30021003F082000C4
:1009B000C200210042082000C5002100410820009B
:1009C000C400CD30C6007025803120005608031DBC
:1009D000ED2C02308E31DC268031210043080319D2
:1009E000F52C41308E31DC2680312100CC0192275C
:1009F00080314C0266030318632D0319032D023066
:100A00006606031D3B2D2000570B1E2D79278031D4
:100A10004C08C600C7013F0786004708403D8700D5
:100A20000108C8000E30C901C835C90D890B142D45
:100A300044084804B90045084904422D792780310B
:100A40004408C6002F304505C7004C08C800C9013E
:100A50003F0786004908403D87000108CA000E3064
:100A6000CB01CA35CB0D890B312D46084A04B9009C
:100A700047084B04422D4C35CD3E86008701403F50
:100A8000B900413FBA008C310A24803121009227FD
:100A90008031FF3EC400FF3003180030C500450818
:100AA000803A803C031D562D44084C020318602DEB
:100AB000210066030319602D2C308E31DC26803135
:100AC0002100CC0AF72C0319692D3B308E31DC262E
:100AD000803120005608031D08000D308E31DC2EB9
:100AE0002100B601200042088600430887004431F7
:100AF000010821003602031808005F27803100300A
:100B00008701C03FC13FB5013508AE00AF013608CF
:100B1000B000B101B035B10DB035B10D2E083007C0
:100B2000B2002F08313DB300B235B30D32082000BA
:100B300044078600210033082000453D87008C27AC
:100B40008031B40084008501403F80070131413F7E
:100B5000803D04303F31B50A3502031C842D04303A
:100B60002000B600B70121005F2780318701403F98
:100B70002000B800413FB900A72680318C27803182
:100B8000AF008600870120003608C03F3708C13F0C
:100B9000570BF22D662780315F278031E7268031A1
:100BA0000136563E832780318226803104278031EA
:100BB0001626803120278031B01BE32D1427803189
:100BC00001365A3EE72D142780310136583E860003
:100BD000362780317F315F27803187018135413170
:100BE000810D132E662780315F2780318701E7262C
:100BF000803101083C3E83278031822680310427E2
:100C000080311626803120278031B01B0C2E14270E
:100C100080310108443E102E142780310108403EE7
:100C20008600362780317F31B60A722DA901A31FB5
:100C3000262EA009A109A209A309A00A0319A10A45
:100C40000319A20A0319A30AA901A90AA71F352E8D
:100C5000A409A509A609A709A40A0319A50A031945
:100C6000A60A0319A70A0130A906AA01AB01AC0123
:100C7000AD01230822042104200403196B2EA801CE
:100C8000A80AA31B482EA035A10DA20DA30D402E2E
:100C9000AA35AB0DAC0DAD0D23082702031D5A2E4E
:100CA00022082602031D5A2E21082502031D5A2E52
:100CB00020082402031C652E2008A4022108A53B5D
:100CC0002208A63B2308A73B2A14A336A20CA10C9A
:100CD000A00CA80B482E29080319792EAA09AB09E4
:100CE000AC09AD09AA0A0319AB0A0319AC0A031926
:100CF000AD0A2D08A3002C08A2002B08A1002A0889
:100D0000A0000800BE01BF01C001C101361C902E29
:100D10003A08BE073B08BF3D3C08C03D3D08C13D09
:100D2000BA35BB0DBC0DBD0DB936B80CB70CB60C41
:100D30003908380437043604031D862E4108B900EB
:100D40004008B8003F08B7003E08B6000800BB01E5
:100D5000B71FB12EB609B709B60A0319B70ABB0106
:100D6000BB0AB91FBA2EB809B909B80A0319B90ADA
:100D70000130BB06BC01BD01360837040319DA2E69
:100D8000BA01BA0AB71BC72EB635B70DC12EBC358E
:100D9000BD0D37083902031DCF2E36083802031C5B
:100DA000D62E3608B8023708B93B3C14B736B60C15
:100DB000BA0BC72E3B080319E22EBC09BD09BC0AB9
:100DC0000319BD0A3D08B7003C08B6000800403FC3
:100DD000AF00413FB0002F082000B60021003008CE
:100DE0002000B700890D893B8909B800B9002100AE
:100DF0003608B100B2012000420786002100320807
:100E00002000433D8700080039082100A70020008A
:100E100038082100A600200037082100A500200086
:100E200036082100A40008003608AE00AF012000FB
:100E30004207860021002F082000433D870008005C
:100E40003635200046072100B300860087012008C0
:100E5000C03F2108C13F3635200046072100AE00C3
:100E60008600403FAF00413FB000080001308700DE
:100E700001082100B000B101B01BB10336352000DC
:100E800046072100B2008600870130088107413102
:100E90003108813D0800200043082100A100200006
:100EA00042082100A0002000C20A0319C30A210041
:100EB00020088400210885000008AA0008003635B3
:100EC000200046072100AE00860008008030210087
:100ED000A000A101A201A3010800A0002D30A101E2
:100EE000A035A10D200784009830213D8500003FEA
:100EF000080021004C35CD3E86008701403FC400EC
:100F0000413FC50008008600013087000108BA0093
:100F1000BB01BC01BD010800210036352000460799
:100F2000210008003F08860040088700443101087E
:100F300008002908860087012A088100A90A0800FC
:100F4000BF01BD1FAD2FFA2787310319BB0A031953
:100F5000BC0A0319BD0ABF01BF0AB91FBA2FB609DF
:100F6000B709B809B909B60A0319B70A0319B80AC3
:100F70000319B90A39083804370436040319E72F6E
:100F8000BE01BE0AB91BC92FB635B70DB80DB90DD4
:100F9000C12F39083D02031DD72F38083C02031D1D
:100FA000D72F37083B02031DD72F36083A02031C00
:100FB000E12F3608BA023708BB3B3808BC3B39087A
:100FC000BD3BB936B80CB70CB60CBE0BC92F3F08E9
:100FD0000319F12FFA270319BB0A0319BC0A0319D5
:100FE000BD0A3D08B9003C08B8003B08B7003A0804
:100FF000B6000800BA09BB09BC09BD09BA0A080055
:101006006400013080010131FE020030FF3B7F08A1
:101016007E0403190034042820000030BC01BC0AF9
:101026009E31F42688310030D60180315620883131
:1010360000304C2320000230BC019E31F42688315A
:101046002100A001A00AA101A627E4302000C000CB
:101056000330C10080318B2088311B301527883141
:10106600003A03193C281B3015278831FF3A031D27
:101076005D282100A20180302000BC00210022084A
:101086001B3E9E31F426883121000430A20A22023A
:10109600031C3E28A30180302000BC002100230849
:1010A600273E9E31F426883121000230A30A23020E
:1010B600031C4E282100A40124081B3E1527883155
:1010C600BC00210024081F278831210024081F3E68
:1010D60015278831BC00210024084B2788312100C0
:1010E6002408233E15278831BC0021002408352713
:1010F600883121000430A40A2402031C5F28A501BC
:101106002508273E15278831BC0021002508043E06
:101116001F27883121002508293E15278831BC0064
:1011260021002508043E4B278831210025082B3E47
:1011360015278831BC0021002508043E3527883153
:1011460021000230A50A2502031C83289D31FE2DAD
:1011560023008E1121008E1122008E152100A80178
:101166009D31A325883120000330D6011527803113
:1011760056208831003A031DC3282100A801A80A79
:101186000430152788314C238831003A031DCE28B8
:101196002100A801A80AD3278831053061278831A4
:1011A6003B082100A10020003A082100A000A62744
:1011B6008831003A031DE2282100A801A80A073059
:1011C60061273B08C1003A08C00080318B20883176
:1011D600003A031DF1282100A801A80A2100A9014F
:1011E6002908093E15278831BC00210029081F2738
:1011F6008831210029080D3E15278831BC002100C1
:1012060029084B27883121002908113E15278831E6
:10121600BC00210029083527883121000430A90A9D
:101226002902031CF328AA012A08153E152788312E
:10123600BC0021002A08043E1F27883121002A0805
:10124600173E15278831BC0021002A08043E4B278B
:10125600883121002A08193E15278831BC00210053
:101266002A08043E3527883121000230AA0A2A02BC
:10127600031C17292808031941290F202000D5012E
:10128600D50AD401FB01080020004E08FF3E031CCE
:10129600372B8400153004020318372B90310435A0
:1012A600003E8200080020005608003A031D080090
:1012B6003730BB009830BC00BD01BD0A8331B02B6E
:1012C6000030C7278F302000BB009830BC00BD011E
:1012D6008331B02B0130C72F20005608003A031D7A
:1012E600080059238831003A03198029013A031965
:1012F6003C2B033A0319442B3C2B2000D501D50A7D
:1013060021006608D80000304C238831C0233708F6
:101316002100D600200036082100D500D701D70AC3
:1013260080312F208831210058084C2B2000560888
:10133600003A031D080059238831003A0319AA29E7
:10134600013A03193C2B033A0319442B3C2B20008A
:10135600D501D50A21006608D90002304C23883110
:10136600C02337082100D600200036082100D5000A
:10137600D701D70A80312F208831210059084C2BFC
:1013860020005608003A031D08000F208F30BB00CE
:101396009830BC00BD018331B02B20005608003ABE
:1013A600031D08000130A02D20005608003A031D39
:1013B6000800220021082100A100220020082100A7
:1013C600A000A6278831652920005608003A031D8B
:1013D6000800220020088031562088316529200027
:1013E6005608003A031D0800012AC0233708C10029
:1013F6003608C00080318B20883165295923883111
:10140600003A0319F829013A03193C2B033A031948
:10141600442B3C2B20005608003A031D08002200EE
:1014260020084C238831652920005608003A031D00
:1014360008000030A02D20005608003A031D0800C1
:101446009D31FE258831652920005608003A031D86
:1014560008000330152780315620883104301527BF
:1014660088314C2388310530612788313B082100BB
:10147600A10020003A082100A000A62788310730E5
:1014860061273B08C1003A08C00080318B208831B3
:101496002100E0016008093E15278831BC002100C3
:1014A60060081F278831210060080D3E1527883106
:1014B600BC00210060084B27883121006008113EDE
:1014C60015278831BC0021006008352788312100A6
:1014D6000430E00A6002031C4D2AE1010230610279
:1014E600031865296108153E15278831BC002100BF
:1014F6006108043E1F27883121006108173E152721
:101506008831BC0021006108043E4B278831210048
:101516006108193E15278831BC0021006108043E88
:10152600352788312100E10A712A20005608003A41
:10153600031D08002100DA0106305A020318652946
:101546005A35203E86000130870001082000BC0085
:1015560021005A081F2788312100DA0A9F2A200015
:101566005608003A031D08002100DB0106305B0225
:10157600031865295B35203E860001308700010887
:101586002000BC0021005B084B2788312100DB0AC4
:10159600B92A20005608003A031D08002100DC0184
:1015A60006305C02031865295C35203E8600013052
:1015B600870001082000BC0021005C08352788311F
:1015C6002100DC0AD32A20005608003A031D080031
:1015D6002100DD0106305D02031865295D35203ED8
:1015E60086000130870001082000C00021005D0848
:1015F6009D31862588312100DD0AED2A2000560816
:10160600003A031D08002100DE0106305E020318C1
:1016160065295E35203E86000130870001082000DE
:10162600C00021005E089D314C2588312100DE0A6C
:10163600082B20005608003A031D08002100DF0190
:1016460006305F02031865295F35203E86000130AB
:10165600870001082000C00021005F089D31692530
:1016660088312100DF0A232B20005608003A031D8B
:1016760008008D302000BB009830BC00BD018331CE
:10168600B02B8B302000BB009830BC00BD018331ED
:10169600B02B2000B6005608031D00340330360276
:1016A6000318003436082100E600013450080319F7
:1016B600013420005708003A031D972B500B642B6A
:1016C6000034BB015008FF3EB600FF30031800305F
:1016D600B700803A803C031D722B36083B02031884
:1016E600003420003B08013EBA0050083A020318B5
:1016F600952B3A35203E860001308700403FB600E4
:10170600413FB7003B35203E8600403FB800413F91
:10171600B9003706031D912B360838060319013424
:10172600BA0A782BBB0A652B033050020318023421
:1017360022002108EF278831031DA42B0330220045
:10174600200203180234023020005006031D003424
:1017560022002308EF278831031DB42B0330220013
:10176600220203180234220021082306031DBD2B82
:10177600200822060319013400342000BD01BE01F1
:101786005008031DD52B20005708003A031DD02B07
:10179600E430B6000330B70008000430B60001306C
:1017A600B7000800BF0150083F020318F62B3F356B
:1017B600203E860001308700403FB800413FB90017
:1017C6003808FF3EBA00FF30393DBB003F35890A75
:1017D600EE2BBA35BB0D890BEC2B3A08BD043B0842
:1017E600BE04BF0AD62B5008B800B901B900B8012B
:1017F6003808003EBB00FF30393DBC003B08BD0445
:101806003C08BE043E08B7003D08B6000800942D0B
:101816000130BE01BD008630BC00A030BB001030D8
:10182600A301A201A100A00139082000B6002100F1
:101836003A082000B700890D893B8909B800B9002C
:1018460021003E082000BD0021003D082000BC000C
:1018560021003C082000BB0021003B082000BA0004
:1018660086318226883187310427883186311626CB
:1018760088312308BE002208BD002108BC002008CC
:10188600BB003E082000C50021003D082000C40022
:1018960021003C082000C30021003B082000C200B4
:1018A6002100B7012000C51F6A2C5A2C6A2C2D3046
:1018B6002100AE002000C209C309C409C509C20A35
:1018C6000319C30A0319C40A0319C50A6C2C21009B
:1018D600AE0108302100B80004303806031D7C2C08
:1018E600752C7C2C3808AE3E86002E308701810090
:1018F600CC2C3808AE3E86000A3087012000B600A0
:10190600B701B801B9014508BD004408BC00430849
:10191600BB004208BA008731A02788313608303E1E
:1019260081000A302100A000A101A201A30120002C
:1019360045082100A700200044082100A600200039
:1019460043082100A500200042082100A40086319A
:101956001626883123082000C50021002208200011
:10196600C400210021082000C30021002008200017
:10197600C2004508440443044204031DCC2CC42C75
:10198600CC2C0430210038020318CC2CD32CCC2CC0
:10199600D32C2100B8033808031D6F2CD32C6F2CD1
:1019A6002E080319012DD82C012D3808FF3EAE3E16
:1019B60086002D30870181003808FF3EAE3E2000AC
:1019C600BC00BD013D083C07BB008600870101083D
:1019D600031DF02C222DF02C222D3D083C07BB00C8
:1019E600860087010108DC2688312000BD0A1830F0
:1019F6003D02031CE52C222DE52C222D3808AE3E97
:101A06002000BC00BD013D083C07BB0086008701E5
:101A16000108031D112D222D112D222D3D083C07F5
:101A2600BB00860087010108DC2688312000BD0A3C
:101A360018303D02031C062D222D062D222D0800EE
:101A46003A08DC26883121003908DC2E3A082000C5
:101A5600BF00210039082000BE003F08BD003D0E32
:101A66000F39BC000F303C05BB000A303B02031C9B
:101A7600442D3E2D442D3C080F39373EDC26883157
:101A8600492D3C080F39303EDC26883120003D08C0
:101A9600BC000F303C05BB000A303B02031C5B2D2B
:101AA600552D5B2D3C080F39373EDC268831612DDC
:101AB6003C080F39303EDC268831612D20003E0877
:101AC600BD003D0E0F39BC000F303C05BB000A308F
:101AD6003B02031C762D702D762D3C080F39373EC0
:101AE600DC2688317B2D3C080F39303EDC268831D8
:101AF60020003D08BC000F303C05BB000A303B020D
:101B0600031C8D2D872D8D2D3C080F39373EDC2685
:101B16008831932D3C080F39303EDC268831932DD1
:101B260008006608003A03190B2C013A0319232D05
:101B3600033A0319292D9F2D08002100BA0002300F
:101B4600DC2688314130DC2688315330DC2688316A
:101B56005230DC26883121003A080319BB2D0530A6
:101B6600612788313B082100AC0020003A08C82DC7
:101B760022005D082000B70022005C082000B600A5
:101B860037082100AC00200036082100AB006E2784
:101B960088313B30DC2688315330DC2688314D30A5
:101BA600DC26883121003A080319DD2D033015277C
:101BB6008831DF2D200057082100AB00AC016E27CD
:101BC60088313B30DC2688315330DC26883143307F
:101BD600DC26883121003A080319FA2D07306127DF
:101BE60088313B082100B90020003A08072E220060
:101BF60055082000B700220054082000B600370818
:101C06002100B900200036082100B8003908033940
:101C1600013EBB00B7013B0837020318322E3808D5
:101C26000339313EDC2688312100B936B80CB93685
:101C3600B80C3B08FF3EB500FF3003180030B60075
:101C46003608803A803C031D2A2E350837020318D1
:101C56002F2E2C30DC2688312100B70A0E2E3B3081
:101C6600DC2688315330DC2688314430DC26883146
:101C760021003A080319442E043015278831210023
:101C8600462E21006608AB00AC016E2788313B303A
:101C9600DC2688315330DC2688314130DC26883119
:101CA6002100BB013A080319652E04303B023B08AC
:101CB6000318612E093E15278831692E113E152716
:101CC6008831692E3B089E31FC2688312100AB0005
:101CD600AC016E278831053021003B060319762EAC
:101CE6002C30DC268831FB278831031C552E3B30EF
:101CF600DC2688315330DC2688314230DC268831B8
:101D06005030DC2688312100BB013A080319982E91
:101D160004303B023B080318942E0D3E15278831EC
:101D26009C2E133E152788319C2E3B089F31242775
:101D360088318131CC21883105303B060319A62E26
:101D46002C30DC268831FB278831031C882E3B305B
:101D5600DC2688315330DC2688314230DC26883157
:101D66004E30DC2688312100BB013A080319C82E03
:101D760004303B023B080318C42E113E1527883158
:101D8600CC2E153E15278831CC2E3B089F311027C7
:101D960088318131CC21883105303B060319D62E96
:101DA6002C30DC268831FB278831031CB82E0D30F9
:101DB600DC2E2000BA004708480403190800210059
:101DC600111AEC2E20000C19EC2E3A0823009A006A
:101DD6000F2F2100111270302000B6002130B700FD
:101DE60049083607B8004A08373DB9003808860062
:101DF600390887003A088100C90A0319CA0A02305D
:101E06004A02003003194902031C0B2FC901CA01FB
:101E16000130C7020030C83B20000C190800210021
:101E2600111608002000BA00B6003B30B701B70A09
:101E3600903148203B0808002000BD0004303D02D8
:101E46000318292F3D083C3EE927883104303D021E
:101E5600031C080006303D02031808003D08523EE8
:101E6600E92708002000BD0004303D0203183F2F7B
:101E76003D08403EF527883104303D02031C08002A
:101E860006303D02031808003D08543EF5270800B9
:101E96002000BD0004303D020318552F3D08443E86
:101EA600E327883104303D02031C080006303D025A
:101EB600031808003D08563EE32708002000BD0031
:101EC600B6000230B7003E30903148203F08BB00D4
:101ED6003E08BA00080003302C02E93003192B0231
:101EE6000318A42FDC272C082000C50021002B088E
:101EF6002000C400AF308131FD218831B401AF30FC
:101F06002000B6000030B700843109248831210052
:101F16003408AD00AE012000370821002E02031D53
:101F2600982F2000360821002D02031808003408D7
:101F3600AF3E860087010108DC2688312100B40AFD
:101F4600822F3030DC2E20005608031D003421007D
:101F5600200821040319003403302102E930031953
:101F660020020318003421082200DD002100200889
:101F76002200DC005D082000C40022005C0820006E
:101F8600C30097310B2701342000B6003608031929
:101F9600CE2F360BD02F3608D600D501D50A08002D
:101FA60020000030BD01BE01BD04A030BE04813159
:101FB6004C2997302000C2009830C3002100080049
:101FC6008600013087003C08810008008600013049
:101FD60087003C0881000800803A2000B600803067
:101FE600360208008600013087003C0881000800A0
:101FF60021000630BB0A3B02080089315629893187
:10200600632989316D2989316F2989319929893166
:10201600C3298931D0298B31372B8931D729893189
:10202600E7298931F2298A310D2A8A31172A8A311C
:102036001E2A8A31272A8A31982A8A31B22A8A3177
:10204600CC2A8A31E62A8B31012B8B311C2B90311D
:10205600EA289231632A9531BB2D9231A12A943117
:022066007D2CCF
:1020880023001D121D160800B9003908B8002300E6
:1020980095184B2820003608230091009201200053
:1020A800B703370F582808002300951858289513A8
:1020B80015142000380886008701230013088100C2
:1020C8002000B80A2300910A0319920A5328023003
:1020D80020004802003003194702031C0C199428F9
:1020E8007030F0002130F10021006308700786008D
:1020F8006408713D8700010823009A002100E30A63
:102108000319E40A02306402003003196302031C55
:102118008F28E301E4012000C70A0319C80A080050
:10212800210011120800C128D2209031810123001A
:102138001D1DA92820005208343E86008114220063
:102148004B088A004A080A00903123009D1CB428D5
:10215800D220011522004D088A004C080A0090314F
:10216800D220903101080319C028220049088A00AA
:1021780048080A0090310800C128200052082C3E67
:102188008600013087002300190881002000D20A48
:10219800083052020318D201D10A08002000520860
:1021A800343E8600013087000800A4012000CF01DA
:1021B800D001CE0121002408031DEC282408A03EEC
:1021C80086000130870002300106031D0134A40A8D
:1021D800A5302000B700210024082000B900B8016C
:1021E80022303902031CFC28FA28FC280030602A17
:1021F8003908A03E8600013087000108B60036087D
:10220800031D0A2908290A29013012290D3036062A
:10221800031D11290829112908290030003A03193A
:102228001929172919290230602A3908A03E860081
:10223800013087000108B6002C303606031D282916
:1022480026292829013029290030003A031935297F
:102258002E2935293708860087018101810A013036
:10226800602A3908A03E8600013087000108B600C0
:1022780030303602031C4A2942294A293A303602AC
:1022880003184A2948294A2901304B290030003AC5
:10229800031D6C2950296C293908A03E860001309D
:1022A80087000108B6002D303606031D5F295D2919
:1022B8005F29013067292B303606031D66295D2901
:1022C80066295D290030003A0319DB296C29DB29CE
:1022D8003908A03E86000130870001082300C200AB
:1022E8002000B80A3930B600360886008701810A0E
:1022F8003608860087014D080102031C87298529B5
:102308008729003088290130003A031DB329FA28AB
:10231800B329FA283808C23E8600013087003908F8
:10232800A03E84000130850000088100B80A3930D9
:10233800B600360886008701810A360886008701BC
:102348004D080102031CAC29AA29AC290030AD298B
:102358000130003A031DB329FA28B329FA283908AD
:10236800A03E8600013087000108B60030303602F2
:10237800031CC829C029C8293A3036020318C829BD
:10238800C629C8290130C9290030003A031D8E2901
:10239800CE298E2937088600870138088100380839
:1023A800C23E86000130870081010330602A390867
:1023B800A03E8600013087000108B6004130360291
:1023C800031CF029E829F0295B3036020318F029AC
:1023D800EE29F0290130FE2961303602031CFD295F
:1023E800F629FD297B3036020318FD29EE29FD293F
:1023F800EE290030003A0319FA282C2AFA282C2A48
:102408003808C23E8600013087003908A03E8400A3
:10241800013085000008B60036085F398100B80A27
:102428003930B600360886008701810A36088600EA
:1024380087014D080102031C252A232A252A00307A
:10244800262A0130003A031D2C2AFA282C2AFA28B9
:102458003908A03E8600013087000108B6004130E7
:102468003602031C412A392A412A5B3036020318F6
:10247800412A3F2A412A01304F2A61303602031C83
:102488004E2A472A4E2A7B30360203184E2A3F2A04
:102498004E2A3F2A0030003A031D042A542A042AEF
:1024A800370886008701380881003808C23E860050
:1024B80001308700810104302100A3007F2E023003
:1024C80020004F060319782A04304F060319782A8A
:1024D80006304F060319782A08304F060319782A60
:1024E8000A304F06031D01340B304E0603199C2A8F
:1024F80010304E0603199C2A11304E0603199C2AE7
:1025080012304E0603199C2A13304E0603199C2AD2
:1025180014304E0603199C2A15304E0603199C2ABE
:1025280004304E0603199C2A05304E06031D01345B
:10253800CF0A21002508A407892E20004F0303197C
:10254800B92A03304F060319B92A05304F06031973
:10255800B92A07304F060319B92A09304F060B303C
:102568000319BA2A4F06031D01340B304E060930F1
:102578000319EA2A4E060319E92A0A304E060319F6
:10258800E92A0C304E060319E92A04304E060319CD
:10259800E92A05304E060319E92A10304E060319B8
:1025A800E92A11304E060319E92A12304E0603199A
:1025B800E92A13304E060319E92A14304E06031986
:1025C800E92A15304E06031D013409304E06031D55
:1025D800F12A02304F02031801340A304E06031D57
:1025E800F92A02304F02031801340C304E06031D3D
:1025F800012B02304F020318013410304E06031D20
:10260800092B0D304F020318013411304E06031DFB
:10261800112B0D304F020318013412304E06031DE2
:10262800192B0D304F020318013413304E06031DC9
:10263800212B0D304F020318013414304E06031DB0
:10264800292B0D304F020318013415304E06031D97
:10265800312B0D304F0203180134C230B0269031AF
:102668005035203E8600013087003C08C03F3D08B9
:10267800C13F09304E06031D442C5035203E8600CC
:10268800403F2100A000413FA1002108803AA2005C
:1026980080302202031D522B01302002031C023419
:1026A8002000CE27903183302202031D5D2BE930B4
:1026B800200203180234442CCE27903180302202A5
:1026C800031D682B0230200203180234DC279031E6
:1026D800811B0234492CCE27903180302202031D01
:1026E800772B0330200203180234DC279031811B3A
:1026F80002344D2CCE27903180302202031D862BC8
:1027080001302002031C02342000CE279031803093
:102718002202031D912B0530200203180234512C8C
:10272800CE27903180302202031D9C2B01302002DD
:10273800031C02342000CE27903180302202031D72
:10274800A72B0530200203180234562CCE279031CF
:1027580080302202031DB22B01302002031C0234F8
:102768002000CE27903180302202031DBD2B05307A
:102778002002031802345B2CCE27903180302202CD
:10278800031DC82B01302002031C02342000CE2771
:10279800903181302202031DD32B00302002031810
:1027A8000234602CCE2790317F302202031DDE2BAD
:1027B80080302002031C02342000CE279031803064
:1027C8002202031DE92B8030200203180234652CF5
:1027D800CE2790317F302202031DF42B8030200257
:1027E800031C02342000CE27903180302202031DC2
:1027F800FF2B80302002031802346A2CCE27903138
:1028080080302202031D0A2C01302002031C0234EE
:102818002000CE27903181302202031D152C003074
:102828002002031802346F2CCE2790317F30220209
:10283800031D202C80302002031C02342000CE27E8
:10284800903180302202031D2B2C80302002031887
:102858000234742CCE2790317F302202031D362C8F
:1028680080302002031C02342000CE2790318030B3
:102878002202031D412C8030200203180234792CD7
:102888000A3020004E060319602B0C304E0603193F
:102898006F2B04304E0603197E2B053020004E06A0
:1028A8000319942B0B3020004E060319AA2B103065
:1028B80020004E060319C02B113020004E060319C4
:1028C800D62B123020004E060319EC2B13302000B3
:1028D8004E060319022C143020004E060319182C3A
:1028E800153020004E0603192E2C2000CF0AD00ADE
:1028F8009D2A20004F08031D0134043021002502C1
:1029080003180134C2302000BB009130B600983063
:10291800B7003B088F26903136083704031D982CE2
:10292800962C982C0130B62D9330B6009830B7000D
:102938003B088F26903136083704031DA72CA52C99
:10294800A72C0230B62D9530B6009830B7003B085A
:102958008F26903136083704031DB62CB42CB62CBC
:102968000330B62D6730B6009830B7003B088F2685
:10297800903136083704031DC52CC32CC52C0430F0
:10298800B62D6A30B6009830B7003B088F269031D4
:1029980036083704031DD42CD22CD42C0530B62D80
:1029A8007330B6009830B7003B088F269031360850
:1029B8003704031DE32CE12CE32C0630B62D7030D0
:1029C800B6009830B7003B088F2690313608370498
:1029D800031DF22CF02CF22C0730B62D8530B600F2
:1029E8009830B7003B088F26903136083704031D0E
:1029F800012DFF2C012D0930B62D7C30B600983002
:102A0800B7003B088F26903136083704031D102D78
:102A18000E2D102D0A30B62D6430B6009830B70050
:102A28003B088F26903136083704031D1F2D1D2DB6
:102A38001F2D0B30B62D7930B6009830B7003B0803
:102A48008F26903136083704031D2E2D2C2D2E2D60
:102A58000C30B62D6D30B6009830B7003B088F2685
:102A6800903136083704031D3D2D3B2D3D2D0D308B
:102A7800B62D8830B6009830B7003B088F269031C5
:102A880036083704031D4C2D4A2D4C2D0E30B62D1B
:102A98007630B6009830B7003B088F26903136085C
:102AA8003704031D5B2D592D5B2D0F30B62D7F305C
:102AB800B6009830B7003B088F26903136083704A7
:102AC800031D6A2D682D6A2D1030B62D5C30B600B6
:102AD8009830B7003B088F26903136083704031D1D
:102AE800792D772D792D1130B62D5430B6009830C8
:102AF800B7003B088F26903136083704031D882D10
:102B0800862D882D1230B62D8230B6009830B70049
:102B18003B088F26903136083704031D972D952DD5
:102B2800972D1330B62D6030B6009830B7003B08AB
:102B38008F26903136083704031DA62DA42DA62D07
:102B48001430B62D5830B6009830B7003B088F26A1
:102B5800903136083704031DB52DB32DB52D15302A
:102B6800B62D0030CE004E08031901349C2A2000EF
:102B78004E0BC22D02304F020318013402304E06AC
:102B8800031DCA2D02304F020318013403304E06CC
:102B9800031DD22D02304F020318013404304E06B3
:102BA800031DE62D02304F060319E62D04304F06AB
:102BB8000319E62D06304F060319E62D08304F0697
:102BC800031D013405304E06031DFA2D02304F0651
:102BD8000319FA2D04304F0606300319FB2D4F0652
:102BE8000319FA2D08304F06031D013406304E062E
:102BF800031D022E02304F020318013407304E061F
:102C0800031D0A2E02304F020318013409304E0604
:102C1800031D122E02304F06031D01340A304E06E2
:102C2800031D1A2E02304F06031D01340B304E06C9
:102C3800031D2E2E02304F0603192E2E04304F0688
:102C480003192E2E06304F0603192E2E08304F0674
:102C5800031D01340C304E06031D362E02304F067C
:102C6800031D01340D304E06031D3E2E02304F0267
:102C7800031801340E304E06031D462E02304F0253
:102C8800031801340F304E06031D4E2E02304F023A
:102C98000318013410304E06031D562E0C304F0613
:102CA800031D013411304E06031D5E2E0C304F06F5
:102CB800031D013412304E06031D662E0C304F06DC
:102CC800031D013413304E06031D6E2E0C304F06C3
:102CD800031D013414304E06031D762E0C304F06AA
:102CE800031D013415304E06031D892E0C304F0686
:102CF800031D0134892E23088400053004020318BB
:102D0800892E903104352A3E8200023021002306A4
:102D180003190034DE28BA009C2E3A0886000130D8
:102D2800870001080319AA2EBA0AB60A0319B70AB6
:102D38003A08860001308700360884003708850085
:102D480000080102B90039080319912E3908B600A4
:102D5800B701B61BB7030800C50045088600013057
:102D6800870020300106031DBB2EC50AB12E450879
:102D7800860001308700093001060319B92EC30106
:102D8800C401C201450886002D300106031DCE2E60
:102D9800C20AF52E45088600013087002B3001064F
:102DA8000319F52EEC279031B9279031031CF72E23
:102DB800EC279031BE00BF014408B7004308B600B5
:102DC8000A30B800B9015E2790313E083607C000C6
:102DD8003F08373DC1004008D03EC300FF30413DA9
:102DE800C400C50AD62E42080319062F4309BE009F
:102DF8004409BF00BE0A0319BF0A3E08BC003F08C9
:102E0800BD0008004408BD004308BC000800430892
:102E180044040319080003304402E930031943024B
:102E2800031808007327903100304402103003194A
:102E3800430203183E2FE42790315E27903137086C
:102E4800850036088400FD3084079730853D0008EA
:102E5800D900E42790315E2790313708850036087D
:102E68008400FE3084079730853D003FC500013F50
:102E7800C600522FD9014308B6004408B7000F30E6
:102E8800B801B901BD01BC004230BB004030BA00F6
:102E98007A2790313708C6003608C500D801B60130
:102EA800B7014508B6024608B73B75279031C727D2
:102EB8009031CC2FBA01BB01361C662F3808BA07EF
:102EC8003908BB3DB835B90DB736B60C36083704E6
:102ED800031D602F3B08B7003A08B6000800181019
:102EE80008003708CC003608CB000800BE01BF0137
:102EF800C001C10139083804370436040319B02F5A
:102F0800C201C20AB91B8D2FB635B70DB80DB90D60
:102F1800852FBE35BF0DC00DC10D39083D02031DFB
:102F28009F2F38083C02031D9F2F37083B02031DC3
:102F38009F2F36083A02031CAA2F3608BA02370810
:102F4800BB3B3808BC3B3908BD3B3E14B936B80C0E
:102F5800B70CB60CC20B8D2F4108B9004008B80059
:102F68003F08B7003E08B6000800B7003A30B6017F
:102F780037020318C52F30303702031CC52FB6019E
:102F8800B60A360C08004C08B7004B08B600F22FFA
:102F9800181408005035203E860001308700403F55
:102FA8002100A000413FA1002108803AA2000800AA
:102FB80020005035203E860001308700413108004E
:102FC8004408B7004308B6000330B800B901080048
:102FD800450886000130870001080800181DFB2FEE
:102FE8001810370897003608960018140800370894
:102FF800970036089600080010342434F4340A3454
:103008005034C33407340334BA3405345034C33429
:1030180004345034C334053435348234033403342F
:10302800BA34043412347A340334AD34903404346A
:10303800A834613403345F3476340234C334A234A0
:10304800033429346434023483348B340234363400
:103058008234013400340A34003464340034E834EF
:1030680003341034273454346934623462346F348E
:10307800203449346E3463342E3420345434693463
:1030880062346234693474342334343433342D3440
:10309800313420344634573431342E343334003408
:1030A800533442344E340034463442344E340034BF
:1030B80053344234503400344634423450340034AB
:1030C8005334433400345234413400345234483495
:1030D80000344734433400344734453400345334DF
:1030E80046340034463445340034533444340034D0
:1030F80053344D340034533441340034463441346D
:1031080000345334523400345334453400344F348B
:1031180000344334003441340034563400344334EA
:0C31280000344434003425346434003496
:1038460011104C08F1004B08F00036249C312B2C4B
:103856002200520853040319080053088A0052082C
:103866000A009C310800181D3F2C1810710897009B
:1038760070089600181408007108970070089600E2
:10388600080020005808031D4B2C5908D8004D2C61
:10389600D8030800560B080004307B020318080002
:1038A6005E30A0000130A1005408B0000530B1011F
:1038B600B035B10D890B5B2C7030B2002330B300EC
:1038C60030083207B4003108333DB5003408A20091
:1038D6003508A3007324FB0AD40A0330D405080074
:1038E60055080319852C2008860021088700010841
:1038F60030259C317108F8007008F7000E259C31C0
:103906002000D501AE01AF012008860021088700FE
:10391600443101082F020318082D200886002108CB
:10392600870044310108FF3EA400FF300318003031
:10393600A5002F0824062504031DA62C20088600B2
:1039460021088700B32C2F08A400A5012007A60094
:103956002508213DA7002608860027088700413153
:10396600010830259C317108F8007008F7000E2513
:103976009C3178082000AD007708AC002D1EE52CA0
:103986002C08A400F0302D04A5002E08A600A701DF
:103996002F08A800A901A835A90DA835A90D260844
:1039A6002807AA002708293DAB00AA35AB0D2A082F
:1039B600220786002B08233D87002408C03F2508E0
:1039C600C13F062D2C08A4000F302D05A5002E089A
:1039D600A600A7012F08A800A901A835A90DA8359A
:1039E600A90D26082807AA002708293DAB00AA35F5
:1039F600AB0D2A08220786002B08233D87002408E2
:103A0600C03F2508C13FAF0A872C0430AE0A2E02FC
:103A160003180800862C2400951322008E117808BE
:103A260024009100240014181A2D6400152D110885
:103A3600F900FA0195137708910024001418252D32
:103A46006400202D22008E157908F800F701240065
:103A56001108F7070318F80A0800F4005708103091
:103A6600F500031D382D8030392D8230F60074089C
:103A76000339F2000A30F301F235F30D890B3F2DBD
:103A86007208F5047308F6047608F1007508F0006C
:103A960008002000C100043041020318592D4108D6
:103AA600443EDE279D311F3EF4269D3104304102FF
:103AB600031C682D063041020318682D4108563E46
:103AC600DE279D31253EF4269D31782F2000C1004A
:103AD600043041020318762D4108403EE7279D3108
:103AE600233EF4269D3104304102031C852D063009
:103AF60041020318852D4108543EE7279D31273E94
:103B0600F4269D31782F2000C100043041020318AD
:103B1600932D41083C3EF0279D311B3EF4269D31F6
:103B260004304102031CA22D063041020318A22DC7
:103B36004108523EF0279D31233EF4269D31782FD1
:103B46000030A601A7018F3115279D31013A031DCB
:103B5600B52D0030D7259D31003A0319B52D21002A
:103B6600A601A60A2D308F3115279D31013A031D76
:103B7600C52D0130D7259D31003A0319C52D2100E9
:103B8600A701A70A2100260BCB2D270BCB2D08005A
:103B960026080319D02D0130892F27080319D52DA2
:103BA6000030892F88310F28BC00BD013C0803195D
:103BB600F02DBE013E082F3E8F3115279D31BD07E2
:103BC6002B30BE0A3E02031CDD2D2E308F31152709
:103BD6009D313D06031901340034BF013F08023E02
:103BE6008F3115279D31BD072B30BF0A3F02031CBD
:103BF600F12D0130E92D22005D082000B7002200DA
:103C06005C082000B6003608C0003708C100053041
:103C16008F3161279D313B084106031D142E3A085A
:103C260040060319242E22005D082000B70022005A
:103C36005C082000B6003708BD003608BC00053019
:103C46003827220055082000B7002200540820001B
:103C5600B6003608C0003708C10007308F3161272B
:103C66009D313B084106031D3A2E3A0840060319CA
:103C76004A2E220055082000B700220054082000D2
:103C8600B6003708BD003608BC00073038270430B8
:103C96008F3115279D31C00021006608200040069F
:103CA60003195B2E210066082000BC000430F426B0
:103CB60003308F3115279D31C0002000570840067C
:103CC60003196A2E20005708BC000330F426C201EF
:103CD6004208093E8F3115279D31C0004208FC2657
:103CE6009D31400603197E2E4208FC269D31BC00FC
:103CF6004208093EF42642080D3E8F3115279D31B4
:103D0600C000420824279D3140060319912E42081F
:103D160024279D31BC0042080D3EF4264208113E80
:103D26008F3115279D31C000420810279D3140066E
:103D36000319A52E420810279D31BC004208113EEA
:103D4600F4269D310430C20A4202031C6B2EC301C5
:103D56004308153E8F3115279D31C0004308043EA8
:103D6600FC269D3140060319C02E4308043EFC265E
:103D76009D31BC004308153EF4264308173E8F319B
:103D860015279D31C0004308043E24279D31400677
:103D96000319D52E4308043E24279D31BC00430851
:103DA600173EF4264308193E8F3115279D31C00072
:103DB6004308043E10279D3140060319EB2E4308A5
:103DC600043E10279D31BC004308193EF4269D3160
:103DD6000230C30A4302031CAB2E78279D31013003
:103DE600892F2000BD003C30B600B701B70A3D0858
:103DF6003F2F2000B600043036020318052F360880
:103E06003C3ED92F04303602031C003406303602FD
:103E1600031800343608523ED92F2000B60004306D
:103E260036020318192F3608403ED92F04303602C1
:103E3600031C003406303602031800343608543E9C
:103E4600D92F2000B6000430360203182D2F36086D
:103E5600443ED92F04303602031C003406303602A5
:103E6600031800343608563ED92FBE003C30B60043
:103E76000230B7003E083F2FBB003608BA002300C9
:103E86009518422F20003B08FF3EB800FF3003186C
:103E96000030B900380823009100200039082300BB
:103EA600920095132000B703370F5A2F08002300FE
:103EB60095185A2F20003A0886008701010823002A
:103EC60093002000BA0A2300910A0319920AF927DF
:103ED6009D31151555309600AA309600951415118A
:103EE6002000031C552F8B17552FBE01BF013F081D
:103EF600023E8F3115279D31BE072B30BF0A3F0288
:103F0600031C7A2F3E08BC000130F42E2000B800B6
:103F160038080319922F0030BA002D30952F2D3016
:103F2600BA000030BB00BC013A083C07A8279D3107
:103F36002000B900B6003B083C07BE279D312D3056
:103F4600BC0A3C0203180800972FB600AB2F2000CE
:103F5600640023009518AA2F20003608230091003C
:103F660092013F30950515140310151803140030FF
:103F7600093D13080800B70023009518BF2F20003D
:103F86003708230091009201200036082300930091
:103F96003F309505F927151555309600AA3096003D
:103FA60095141511200003188B17080086000130A0
:103FB600870001080800860001308700400881005C
:103FC6004008BC0041080800860001308700400810
:103FD60081004008BC0041080800860001308700C7
:103FE600400881004008BC0041080800200003107A
:0A3FF6008B1B03148B13230008003B
:020000040001F9
:04000E00DCEFFFFB29
:10E000000000000000000000000000000000000010
:10E010000000000000000000000000000000000000
:10E0200000000000000000000000000000000000F0
:10E0300000000000000000000000000000000000E0
:10E0400000000000000000000000000000000000D0
:10E0500000000000000000000000000000000000C0
:10E0600000000000000000000000000000000000B0
:10E0700000000000000000000000000000000000A0
:10E080000000000000000000000000000000000090
:10E090000000000000000000000000000000000080
:10E0A0000000000000000000000000000000000070
:04E0B000000000006C
:00000001FF
